:100000000C9456000C9473000C9473000C947300C1
:100010000C9473000C9473000C9473000C94730094
:100020000C9473000C9473000C9473000C94730084
:100030000C9473000C9473000C9473000C94730074
:100040000C9473000C9473000C9473000C94730064
:100050000C9473000C9473000C9473000C94730054
:100060000C9473000C94CA040C949F040C947300B9
:100070000C9473000C9473000C9473000C94730034
:100080000C9473000C9473000C9473000C94730024
:100090000C9473000C9473000C9473000C94730014
:1000A0000C9473000C9473000C94730011241FBE05
:1000B000CFEFDAE0DEBFCDBF11E0A0E0B1E0E6E0D7
:1000C000FBE002C005900D92A43EB107D9F712E003
:1000D000A4EEB1E001C01D92A836B107E1F70E947D
:1000E00055020C9481050C940000EAE7F0E0908141
:1000F0009F77908390819F7B9083883009F47AC0AA
:10010000893088F48430F1F1853030F4882309F1A6
:10011000813009F0F5C028C0863009F44FC087301F
:1001200008F05AC03DC08B3009F48BC08C3038F4D5
:10013000893009F46AC08A3009F0E2C074C08D3099
:1001400009F49BC08D3008F48AC0843109F0D8C00E
:10015000A2C0ECE7F0E08081807E8083EBE7F0E0F6
:1001600080818F7D8083A4C0ECE7F0E08081817E78
:100170008083808181608083EBE7F0E080818F7DE8
:10018000808396C0ECE7F0E08081847E808380816C
:1001900084608083EBE7F0E080818F7D808388C07E
:1001A000ECE7F0E08081856080838081857E8083BC
:1001B000EBE7F0E080818F7D80837AC0ECE7F0E0B0
:1001C0008081866080838081867E8083EBE7F0E09B
:1001D00080818F7D80836CC0ECE7F0E08081876058
:1001E00080838081877E8083EBE7F0E080818F7D54
:1001F00080835EC0ECE7F0E08081807E8083EBE767
:10020000F0E080818062808353C0ECE7F0E0808181
:10021000817E8083808181608083EBE7F0E0808154
:100220008062808345C0ECE7F0E08081827E80833D
:10023000808182608083EBE7F0E080818062808350
:1002400037C0ECE7F0E08081837E8083808183602B
:100250008083EBE7F0E080818062808329C0ECE757
:10026000F0E08081847E8083808184608083EBE7FE
:10027000F0E08081806280831BC0ECE7F0E0808149
:10028000857E8083808185608083EBE7F0E08081DC
:10029000806280830DC0ECE7F0E08081877E808300
:1002A000808187608083EBE7F0E0808180628083DB
:1002B000EAE7F0E0808180688083808180648083C9
:1002C000808186FDFDCF109279001092780044E085
:1002D00020E030E0EAE7F0E0A8E7B0E08081806469
:1002E0008083808186FDFDCF8D919C911197280F91
:1002F000391F415099F7369527953695279502C0B5
:1003000020E030E0822F932F0895ECE7F0E0808129
:10031000806480838081806880838AB18F728AB98B
:1003200080818F7D80838081827E808380818260D6
:100330008083ABE7B0E08C9180628C93EAE7F0E0D9
:1003400080818760808380818F7D80838C918068AD
:100350008C938081806880838081806480838081A9
:1003600086FDFDCF0895FC012081222309F1205351
:100370002A3008F5319621E030E04191442369F4B8
:1003800021153105D9F00E9413059C01F4E0813B51
:100390009F07CCF02FEF3FEF16C040534A3088F450
:1003A0002F5F3F4F2830310541F72FEF3FEF0BC054
:1003B0002FEF3FEF08C02FEF3FEF05C02FEF3FEFCC
:1003C00002C02FEF3FEF822F932F0895009749F03F
:1003D0000197EFE9FFE03197F1F700C000000097C7
:1003E000B9F70895009739F0019725E02A95F1F7BC
:1003F00000000097C9F70895CF93DF93EC0188813F
:10040000882331F021960E946B0489918823D9F7C3
:10041000DF91CF9108951F93CF93DF93EB01893044
:1004200028F080E091E00E94FC0118C045B121E075
:1004300030E0B90102C0660F771F8A95E2F7162FE8
:10044000862F842B85B98EEE92E00E94F201CE01B8
:100450000E94F20195B11095192315B9DF91CF9142
:100460001F9108950F931F93CF93DF93EA01009795
:1004700031F4088119810115110581F001C08C0149
:10048000C8010E94310599838883009739F0FC01E7
:10049000108288819981019699838883802F912F7A
:1004A000DF91CF911F910F9108952F923F924F921C
:1004B0005F926F927F928F929F92AF92BF92CF92F4
:1004C000DF92EF92FF920F931F93DF93CF93CDB7FD
:1004D000DEB7C352D1400FB6F894DEBF0FBECDBF1A
:1004E00080E885BF85BF90E00FB6F89480936100E7
:1004F000909361000FBE6E9A8FEF84B910BA8AB1E3
:100500008F798AB93E98469A60E875E280E090E07B
:100510000E943F040E9485018FE091E00E94FC014F
:1005200081E291E00E94FC018DE791E00E94FC01D4
:10053000FF246E010894C11CD11CC601CE5DDE4FA4
:10054000C882C252D140CD5DDE4F9883C352D140A4
:1005500066247724689470F86C0E7D1E0F2EF5E9E2
:100560002F2EF1E03F2EF02D0F2EF0E14F2EF1E077
:100570005F2EF02D4C0E5D1EEE24C2014096C05E33
:10058000DE4F99838883C052D1400F2EF2E0AF2E08
:10059000F1E0BF2EF02DAC0EBD1E369911C0769A3B
:1005A00085B7816085BF85B7826085BFEEE6F0E0E4
:1005B000108282E390E00E94E6010C94001C26C0A9
:1005C000769824C00E9480048D30D9F4F601EF0D96
:1005D000F11D1082F30111821082CE5DDE4F888101
:1005E000C252D140CD5DDE4F9881C352D140B1019E
:1005F000A3010E943202F20191838083009759F493
:1006000096C0F601EF0DF11D8083F3940E949404CF
:100610008823C1F691C080E090E0B101A3010E945F
:100620003202F20193838283009721F487E991E0FB
:100630009383828380E090E0B101A3010E943202A3
:10064000F20195838483009721F487E991E09583F3
:10065000848380E090E0B101A3010E943202F201A4
:1006600097838683009721F487E991E097838683B7
:1006700080E090E0B101A3010E943202F201918773
:100680008087009721F487E991E09187808780E057
:1006900090E0B101A3010E943202F20193878287A8
:1006A000009721F487E991E09387828780E090E0CA
:1006B000B101A3010E943202F2019587848700975D
:1006C00021F487E991E09587848780E090E0B1018B
:1006D000A3010E943202F20197878687009721F4D6
:1006E00087E991E09787868782010F2EF7ED8F2E9D
:1006F000F1E09F2EF02DF801819191918F010E94E0
:10070000B301FFEF8F3F9F0719F0F40191838083BE
:1007100082E090E0880E991EC05EDE4FE881F9818C
:10072000C052D1400E171F0731F7FE2C05C088E9D3
:1007300091E00E94FC01FE2CE7EDF1E06081718107
:100740008E2D0E940B028E2D0E94750060E074E0D9
:10075000681B790B81E00E940B02EBEDF1E06081F8
:10076000718182E00E940B02EDEDF1E06081718108
:1007700083E00E940B02EFEDF1E06081718184E083
:100780000E940B02E1EEF1E06081718185E00E9440
:100790000B02E3EEF1E06081718186E00E940B02C2
:1007A0008AE00E9475009C01220F331F820F931F65
:1007B0009C01220F331F220F331F4C01820E931E08
:1007C000C401B5014AE050E00E94470585EA91E086
:1007D0000E94FC01C5010E94FC018DEA91E00E948B
:1007E000FC0189E00E9475009C01220F331F280F35
:1007F000391F8901000F111F000F111F020F131F56
:10080000C801B5014AE050E00E9447058BEB91E03A
:100810000E94FC01C5010E94FC0183EC91E00E9452
:10082000FC0187EC91E00E94FC019401201B310B3C
:10083000A901440F551FC901880F991F880F991FDF
:10084000880F991F840F951FB5014AE050E00E9460
:10085000470589EC91E00E94FC01C5010E94FC0162
:1008600080ED91E00E94FC0184ED91E00E94FC018A
:10087000769A89E190E00E94E60176988ECE9B01FF
:10088000AC01F89460E079E08DE390E00E94F1041F
:100890002150304040405040569547953795279518
:1008A0003093CD002093CC0082E08093C80088E98B
:1008B0008093C90086E08093CA001092270280913D
:1008C0002702809326021092E5018091E501809332
:1008D000E40178940895209126022F5F283208F0D1
:1008E00020E0909127022917E1F3E8E2F2E0E20F1D
:1008F000F11D80832093260288EB8093C900089520
:100900009091E4018091E5019817D1F39091E50170
:100910009F5F903408F090E0E6EEF1E0E90FF11D02
:1009200080819093E50108958091E4019091E50123
:10093000891710F0891B0895805C891B08951F9208
:100940000F920FB60F9211248F939F93EF93FF9303
:100950009091260280912702981721F488E98093CC
:10096000C9000FC0809127028F5F883208F080E0B5
:10097000E8E2F2E0E80FF11D90819093CE008093C1
:100980002702FF91EF919F918F910F900FBE0F90D3
:100990001F9018951F920F920FB60F9211242F934C
:1009A0008F939F93EF93FF932091CE008091E4016A
:1009B0008F5F803408F080E09091E501891739F06D
:1009C000E6EEF1E0E80FF11D20838093E401FF9152
:1009D000EF919F918F912F910F900FBE0F901F90CD
:1009E0001895A1E21A2EAA1BBB1BFD010DC0AA1F60
:1009F000BB1FEE1FFF1FA217B307E407F50720F088
:100A0000A21BB30BE40BF50B661F771F881F991F02
:100A10001A9469F760957095809590959B01AC014B
:100A2000BD01CF010895FC0188279927E894219101
:100A30002032E9F3293010F02E30C8F32B3241F088
:100A40002D3239F4689404C00E943F05820F911D35
:100A5000219120532A30C0F31EF4909581959F4F29
:100A60000895DC0199278D91882341F0FB010190C5
:100A700008160110E1F7B9F71197CD0108957AE052
:100A8000979F902D879F802D910D11240895FB0134
:100A90009F01423074F0453264F4642F77270E943E
:100AA0006D05805D8A330CF0895D8193CB010097E1
:100AB000A1F71082C9010C945D05DC01FC01672FD0
:100AC00071917723E1F7329704C07C916D93708325
:100AD0006291AE17BF07C8F30895AA1BBB1B51E173
:100AE00007C0AA1FBB1FA617B70710F0A61BB70B9E
:100AF000881F991F5A95A9F780959095BC01CD0143
:060B00000895F894FFCFF8
:100B060065727220736572766F4E52200D0A0075FB
:100B160061727420696E697420646F6E65200D0AB7
:100B260000666F726D61743A202020736572766F6D
:100B3600312C736572766F322C2C736572766F3436
:100B46002C2C736572766F5F3620200D0A20207775
:100B560065727465207A7769736368656E203120E3
:100B6600756E642031303030200D0A20206D61789A
:100B7600203620736572766F73200D0A00627370DB
:100B86003A20203530302C2C352C3935302C2C326F
:100B960030200D0A002C0000756172742065727297
:100BA6006F72210A004144435F383A2000206D5697
:100BB600636320416B6B75202020004144435F39FD
:100BC6003A2000206D5600200063616C633A2000D5
:100BD600206D41000D0A00F401F401F401F401F462
:040BE60001F4010015
:00000001FF
