S0190000626C696E64656462797468656C696768742E7372656305
S11300000C94BF000C94DC000C94DC000C94DC0019
S11300100C94DC000C94DC000C94DC000C94DC00EC
S11300200C94DC000C94DC000C94E7030C94250481
S11300300C94DC000C94DC000C94DC000C94DC00CC
S11300400C94DC000C94DC000C94DC000C94DC00BC
S11300500C94DC000C94DC000C94DC000C94DC00AC
S11300600C94DC000C94DC000C94DC000C94DC009C
S11300700C94DC000C94DC000C94DC000C94DC008C
S11300800C94DC000C94DC000C94DC000C94DC007C
S11300900C94DC000C94DC000C94DC000C94DC006C
S11300A00C94DC000C94DC000C94DC0000010000D7
S11300B0E0001200020000F20043000300003501DA
S11300C00401030904390114020309044F011E0346
S11300D00309046F010C0001C1120180360181364D
S11300E01201000202000010ADDEFEAF00010102A9
S11300F0030109024300020100C0320904000001A7
S11301000202010005240010010524010101042458
S113011002060524060001070582031000400904B5
S11301200100020A00000007050302400000070561
S1130130840240000004030904140363006E006396
S113014000400073006800610063006B0000001E43
S113015003550053004200200053006500720069FB
S11301600061006C00200043004E00430000000CBE
S11301700330003000380031003500000000112445
S11301801FBECFEFDAE0DEBFCDBF11E0A0E0B1E0EB
S1130190E2EEFBE002C005900D92A43DB107D9F751
S11301A021E0A4EDB1E001C01D92A83DB207E1F742
S11301B00E9473010C94EF050C9400000F931F939D
S11301C0CF93DF938A01009731F4FA01C081D18182
S11301D0209791F001C0EC01CE010E94D905F801ED
S11301E091838083009741F0FC011082F8018081A3
S11301F091810196918380838C2F9D2FDF91CF91E4
S11302001F910F910895FC012081222301F12053B5
S11302102A3000F5319621E030E0419141110CC0C3
S1130220232BD9F00E94BB059C01813BF4E09F077E
S1130230CCF02FEF3FEF16C040534A3088F42F5FC5
S11302403F4F2830310549F72FEF3FEF0BC02FEF19
S11302503FEF08C02FEF3FEF05C02FEF3FEF02C085
S11302602FEF3FEF822F932F0895009749F00197C6
S1130270EFE9FFE03197F1F700C000000097B9F70C
S11302800895009739F0019725E02A95F1F70000C9
S11302900097C9F708950F931F93CF93DF938B01B2
S11302A0893028F083E191E00E94AD0517C095B133
S11302B021E030E0E90102C0CC0FDD1F8A95E2F7AE
S11302C08C2F892B85B98CEB92E00E944101C801E7
S11302D00E94410185B1C095C823C5B9DF91CF9172
S11302E01F910F910895CF93DF93CDB7DEB7CC5014
S11302F0D1400FB6F894DEBF0FBECDBF80E885BFF6
S113030085BF90E00FB6F8948093610090936100EC
S11303100FBE6E9A8FEF84B98AB18F798AB93E98ED
S1130320469A0E94270382E291E00E94AD0584E38D
S113033091E00E94AD0580E991E00E94AD0588EA54
S113034091E00E94AD05FE0131968AEFDF011D9216
S11303508A95E9F7A12CB12CD12C812C912C442421
S113036043948E0105501F4F0F2EF0E35F2EF02DA6
S11303700F2EF0E02F2EF1E03F2EF02D3801B0E1EA
S11303806B0E711C64C00E944003EE24E394F12CB4
S1130390EC0EFD1EEA0CFB1CF70180830E948B030C
S11303A0C5010196D7012C912F3731F4029718F02B
S11303B0C501019701C0C401FE01E80FF91F2081A6
S11303C0203741F4769AFE0131965192E017F107F5
S11303D0E1F7C401FE01E80FF91F20812E3641F434
S11303E07698FE0131965192E017F107E1F729C1A1
S11303F0FE01E80FF91F2081243761F48EB1B0E4C7
S11304008B278EB9FE0131965192E017F107E1F77F
S1130410540104C0883C910540F45C01FE01EA0DDE
S1130420FB1D80818D3099F4C501FE01E80FF91F91
S1130430108280EC91E00E94AD05CE0101960E94ED
S1130440AD0585EA91E00E94AD055401D42C0E94CB
S11304507103811198CFE1E0DE12B8C0C55FDE4FB1
S113046019821882CB50D140AE01455F5E4F64ECD7
S113047071E0CE0101960E94DE00D8018D939C9319
S1130480892B09F499C0AE01455F5E4F64EC71E0BD
S1130490C4010E94DE00F80193838283892B21F436
S11304A087EA91E093838283AE01455F5E4F64ECFB
S11304B071E0C4010E94DE00D80115969C938E93CE
S11304C01497892B31F487EA91E015969C938E93C7
S11304D01497AE01455F5E4F64EC71E0C4010E9465
S11304E0DE00F80197838683892B21F487EA91E063
S11304F097838683AE01455F5E4F64EC71E0C4016F
S11305000E94DE00D80119969C938E931897892B2C
S113051031F487EA91E019969C938E931897AE0173
S1130520455F5E4F64EC71E0C4010E94DE00F80197
S113053093878287892B21F487EA91E093878287C6
S1130540AE01455F5E4F64EC71E0C4010E94DE00C1
S1130550D8011D969C938E931C97892B31F487EABE
S113056091E01D969C938E931C97AE01455F5E4F60
S113057064EC71E0C4010E94DE00F801978786876D
S1130580892B09F058C087EA91E09787868753C082
S1130590D7018D919D917D010E9403018F3FBFEF93
S11305A09B0719F0F60191838083F2E0CF0ED11CF2
S11305B0E614F70469F742C086EC91E00E94AD05A9
S11305C03DC05192E017F107E1F7D12CD1016D91B3
S11305D07C9180E00E944B01E2E0F1E06081718156
S11305E0842D0E944B01A4E0B1E06D917C9182E0E6
S11305F00E944B01E6E0F1E06081718183E00E949A
S11306004B01609108017091090184E00E944B0143
S113061060910A0170910B0185E00E944B01609189
S11306200C0170910D0186E00E944B0189E190E07C
S11306300E9435010CCF78016101AACFFE013196E9
S1130640C0CF8881843709F4D9CE5401E7CE81E044
S11306508093D70080EA8093D80082E189BD09B4F1
S113066000FEFDCF80E98093D8001092E000109244
S1130670D5011092D6018CE08093E200789408951D
S11306803FB7F8948091D501811104C03FBF2FEF8B
S11306903FEF24C083E08093E9008091E80085FD6A
S11306A012C082FD04C00BC082FD04C008C0E8EE85
S11306B0F0E09BE69083808185FFF6CF04C03FBFC6
S11306C02FEF3FEF0BC02091F1008091E80085FDF2
S11306D003C08BE68093E8003FBF30E0822F932F66
S11306E008959FB7F8948091D501882389F083E019
S11306F08093E9008091F20081110BC02091E80001
S113070022FF07C025FD05C02BE62093E80001C0A9
S113071080E09FBF0895CF93DF939091D5019923F3
S113072009F44DC09FB7F89424E02093E900209188
S1130730D701222349F02091E80025FD03C09FBF83
S11307408FEF42C01092D7013091E400375E2091C0
S1130750E80025FD25C09FBF9091E400931749F060
S11307609091D50191110FC02CC09FBF9881931314
S113077005C081E08093D7018FEF26C09091D50109
S1130780911108C020C0A9EEB0E044E0E8EEF0E02A
S1130790C4EED0E09FB7F8944C93208125FFE5CFB9
S11307A08093F1008091E80085FD03C08AE3809383
S11307B0E80085E08093D4019FBF80E005C08FEFFF
S11307C003C08FEF01C08FEFDF91CF9108951F9287
S11307D00F920FB60F9211248F939F93EF93FF9371
S11307E0E1EEF0E08081108283FF11C01092E900F5
S11307F091E09093EB001092EC0092E19093ED0065
S113080098E09093F0001092D5011092D60182FFE7
S113081013C08091D501882379F08091D401882375
S113082059F081508093D401811106C084E08093F3
S1130830E9008AE38093E800FF91EF919F918F9103
S11308400F900FBE0F901F9018951F920F920FB626
S11308500F9211240F931F932F933F934F935F9302
S11308606F937F938F939F93AF93BF93CF93DF93B4
S1130870EF93FF931092E9008091E80083FF51C148
S1130880E1EFF0E07081408120813081932F80E09E
S1130890DC01A22B9D0150816081962F80E0852B85
S11308A0A081B08152EF5093E800463009F05CC05B
S11308B004C081E28093EB003BC1C6E04CEA50E007
S11308C0FA01659174912617370719F0495F5F4F54
S11308D020C0FA013296659174918617970719F032
S11308E0495F5F4F16C0FA01349685919491282F81
S11308F0392FFA01369644919B2F80E08A2B8F3F43
S1130900910519F010F08FEF90E0841728F4482F28
S113091003C0C150A9F6CDCFC8EED0E07EEFA1EF61
S1130920B0E010E18881982F9570E1F382FD00C159
S1130930642F413108F0612F662309F4F6C0C90120
S1130940562FFC010196E491EC935150D1F7862F78
S1130950815090E00196280F391F461B788341117E
S1130960E1CF6031F9F2E4C0453061F48EEF809359
S1130970E800E8EEF0E0808180FFFDCF206820935E
S1130980E300D6C04930A1F571115BC02093D501B5
S11309901092D6011092D4018EEF8093E80011E0FA
S11309A086ED90E0C9EED0E0ABEEB0E06CEE70E026
S11309B04DEE50E018839C012F5F3F4FFC010491E2
S11309C00C93002359F0F9012491FB012083FC01CD
S11309D0329603962491FA01208301C0C9011F5F56
S11309E0153041F7EAEEF0E08EE180831082A0C07A
S11309F0483081F4703809F03FC0E8EEF0E08081BF
S1130A0080FFFDCF8091D5018093F1008EEF80931C
S1130A10E8008EC04132A9F4713AF1F5E8EEF0E055
S1130A20808180FFFDCFECE0F1E0A1EFB0E08191A7
S1130A308C9341E0E331F407D1F78EEF8093E80023
S1130A4077C04032C9F4713209F06BC0E8EEF0E0CF
S1130A50808182FFFDCFECE0F1E0A1EFB0E08C916A
S1130A60819351E0E331F507D1F7E8EEF0E08BEF45
S1130A7080838EEF80835CC0423271F4713209F05E
S1130A8050C02093D601E8EEF0E0808180FFFDCFD6
S1130A908EEF8093E8004CC041111AC0E8EEF0E0FC
S1130AA0208120FFFDCF723851F4E9EEF0E080831D
S1130AB08091EB0085FB882780F9108201C080E0DB
S1130AC0E1EFF0E0808310828EEF8093E80030C085
S1130AD0413011F0433029F5723019F5232B09F513
S1130AE08F779927382F31503430D8F43EEF309334
S1130AF0E8008093E900433021F481E28093EB0025
S1130B0017C099E19093EB0021E030E0D90102C0D5
S1130B10AA0FBB1F8A95E2F7EAEEF0E0A0831082E9
S1130B2007C081E28093EB0003C078834111FACEC1
S1130B30FF91EF91DF91CF91BF91AF919F918F91F1
S1130B407F916F915F914F913F912F911F910F91E1
S1130B500F900FBE0F901F901895CF93DF93EC0169
S1130B608991882329F00E948B0389918111FBCFFD
S1130B70DF91CF910895FC0188279927E89421916A
S1130B802032E9F3293010F02E30C8F32B3241F033
S1130B902D3239F4689404C00E94E705820F911D38
S1130BA0219120532A30C0F31EF4909581959F4FD4
S1130BB00895DC0199278D91882341F0FB01019070
S1130BC008160110E1F7B9F71197CD0108957AE0FD
S1130BD0979F902D879F802D910D11240895F8944F
S1050BE0FFCF41
S1130BE2F401F401F401F401F401F40100E1000060
S1130BF200000865727220736572766F4E52200D82
S1130C020A007561727420696E697420646F6E657E
S1130C12200D0A00666F726D61743A20202073659C
S1130C2272766F312C736572766F322C2C73657207
S1130C32766F342C2C736572766F5F3620200D0A22
S1130C4220207765727465207A7769736368656EAC
S1130C52203120756E642031303030200D0A20207E
S1130C626D6178203620736572766F73200D0A00E9
S1130C726273703A20203235302C2C352C393530C1
S1130C822C2C3230200D0A006273703A2020353544
S1130C92302C2C352C3935302C2C3230200D0A00D6
S1130CA20D0A3E002C0075617274206572726F72B7
S1070CB2210A00000F
S9030000FC
